{
  "contractName": "Voting",
  "abi": [
    {
      "anonymous": false,
      "inputs": [
        {
          "indexed": true,
          "internalType": "address",
          "name": "previousOwner",
          "type": "address"
        },
        {
          "indexed": true,
          "internalType": "address",
          "name": "newOwner",
          "type": "address"
        }
      ],
      "name": "OwnershipTransferred",
      "type": "event"
    },
    {
      "anonymous": false,
      "inputs": [
        {
          "indexed": false,
          "internalType": "uint256",
          "name": "proposalId",
          "type": "uint256"
        }
      ],
      "name": "ProposalRegistered",
      "type": "event"
    },
    {
      "anonymous": false,
      "inputs": [
        {
          "indexed": false,
          "internalType": "address",
          "name": "voter",
          "type": "address"
        },
        {
          "indexed": false,
          "internalType": "uint256",
          "name": "proposalId",
          "type": "uint256"
        }
      ],
      "name": "Voted",
      "type": "event"
    },
    {
      "anonymous": false,
      "inputs": [
        {
          "indexed": false,
          "internalType": "address",
          "name": "voterAddress",
          "type": "address"
        }
      ],
      "name": "VoterRegistered",
      "type": "event"
    },
    {
      "anonymous": false,
      "inputs": [
        {
          "indexed": false,
          "internalType": "enum Voting.WorkflowStatus",
          "name": "previousStatus",
          "type": "uint8"
        },
        {
          "indexed": false,
          "internalType": "enum Voting.WorkflowStatus",
          "name": "newStatus",
          "type": "uint8"
        }
      ],
      "name": "WorkflowStatusChange",
      "type": "event"
    },
    {
      "inputs": [],
      "name": "owner",
      "outputs": [
        {
          "internalType": "address",
          "name": "",
          "type": "address"
        }
      ],
      "stateMutability": "view",
      "type": "function",
      "constant": true
    },
    {
      "inputs": [],
      "name": "renounceOwnership",
      "outputs": [],
      "stateMutability": "nonpayable",
      "type": "function"
    },
    {
      "inputs": [
        {
          "internalType": "address",
          "name": "newOwner",
          "type": "address"
        }
      ],
      "name": "transferOwnership",
      "outputs": [],
      "stateMutability": "nonpayable",
      "type": "function"
    },
    {
      "inputs": [],
      "name": "winningProposalID",
      "outputs": [
        {
          "internalType": "uint256",
          "name": "",
          "type": "uint256"
        }
      ],
      "stateMutability": "view",
      "type": "function",
      "constant": true
    },
    {
      "inputs": [],
      "name": "workflowStatus",
      "outputs": [
        {
          "internalType": "enum Voting.WorkflowStatus",
          "name": "",
          "type": "uint8"
        }
      ],
      "stateMutability": "view",
      "type": "function",
      "constant": true
    },
    {
      "inputs": [
        {
          "internalType": "address",
          "name": "_addr",
          "type": "address"
        }
      ],
      "name": "getVoter",
      "outputs": [
        {
          "components": [
            {
              "internalType": "bool",
              "name": "isRegistered",
              "type": "bool"
            },
            {
              "internalType": "bool",
              "name": "hasVoted",
              "type": "bool"
            },
            {
              "internalType": "uint256",
              "name": "votedProposalId",
              "type": "uint256"
            }
          ],
          "internalType": "struct Voting.Voter",
          "name": "",
          "type": "tuple"
        }
      ],
      "stateMutability": "view",
      "type": "function",
      "constant": true
    },
    {
      "inputs": [
        {
          "internalType": "uint256",
          "name": "_id",
          "type": "uint256"
        }
      ],
      "name": "getOneProposal",
      "outputs": [
        {
          "components": [
            {
              "internalType": "string",
              "name": "description",
              "type": "string"
            },
            {
              "internalType": "uint256",
              "name": "voteCount",
              "type": "uint256"
            }
          ],
          "internalType": "struct Voting.Proposal",
          "name": "",
          "type": "tuple"
        }
      ],
      "stateMutability": "view",
      "type": "function",
      "constant": true
    },
    {
      "inputs": [
        {
          "internalType": "address",
          "name": "_addr",
          "type": "address"
        }
      ],
      "name": "addVoter",
      "outputs": [],
      "stateMutability": "nonpayable",
      "type": "function"
    },
    {
      "inputs": [
        {
          "internalType": "string",
          "name": "_desc",
          "type": "string"
        }
      ],
      "name": "addProposal",
      "outputs": [],
      "stateMutability": "nonpayable",
      "type": "function"
    },
    {
      "inputs": [
        {
          "internalType": "uint256",
          "name": "_id",
          "type": "uint256"
        }
      ],
      "name": "setVote",
      "outputs": [],
      "stateMutability": "nonpayable",
      "type": "function"
    },
    {
      "inputs": [],
      "name": "startProposalsRegistering",
      "outputs": [],
      "stateMutability": "nonpayable",
      "type": "function"
    },
    {
      "inputs": [],
      "name": "endProposalsRegistering",
      "outputs": [],
      "stateMutability": "nonpayable",
      "type": "function"
    },
    {
      "inputs": [],
      "name": "startVotingSession",
      "outputs": [],
      "stateMutability": "nonpayable",
      "type": "function"
    },
    {
      "inputs": [],
      "name": "endVotingSession",
      "outputs": [],
      "stateMutability": "nonpayable",
      "type": "function"
    },
    {
      "inputs": [],
      "name": "tallyVotes",
      "outputs": [],
      "stateMutability": "nonpayable",
      "type": "function"
    }
  ],
  "bytecode": "0x608060405234801561001057600080fd5b5061002d61002261003260201b60201c565b61003a60201b60201c565b6100fe565b600033905090565b60008060009054906101000a900473ffffffffffffffffffffffffffffffffffffffff169050816000806101000a81548173ffffffffffffffffffffffffffffffffffffffff021916908373ffffffffffffffffffffffffffffffffffffffff1602179055508173ffffffffffffffffffffffffffffffffffffffff168173ffffffffffffffffffffffffffffffffffffffff167f8be0079c531659141344cd1fd0a4f28419497f9722a3daafe3b4186f6b6457e060405160405180910390a35050565b612251806200010e6000396000f3fe608060405234801561001057600080fd5b50600436106100f55760003560e01c8063a7bfab1611610097578063d4f50f9811610066578063d4f50f98146101ee578063ee74c6781461021e578063f2fde38b14610228578063f4ab9adf14610244576100f5565b8063a7bfab16146101b2578063bdc01431146101bc578063c7038a4e146101da578063c88af42f146101e4576100f5565b8063715018a6116100d3578063715018a61461013c5780638da5cb5b14610146578063a1edffa214610164578063a2788cce14610182576100f5565b8063230796ae146100fa5780632fdae3c514610116578063378a217814610132575b600080fd5b610114600480360381019061010f919061142a565b610260565b005b610130600480360381019061012b919061159d565b61055c565b005b61013a61079f565b005b61014461090c565b005b61014e610920565b60405161015b9190611627565b60405180910390f35b61016c610949565b60405161017991906116b9565b60405180910390f35b61019c6004803603810190610197919061142a565b61095c565b6040516101a991906117a8565b60405180910390f35b6101ba610ac3565b005b6101c4610ba9565b6040516101d191906117d9565b60405180910390f35b6101e2610baf565b005b6101ec610c95565b005b61020860048036038101906102039190611820565b610d7a565b60405161021591906118aa565b60405180910390f35b610226610ea2565b005b610242600480360381019061023d9190611820565b610f88565b005b61025e60048036038101906102599190611820565b61100b565b005b600460003373ffffffffffffffffffffffffffffffffffffffff1673ffffffffffffffffffffffffffffffffffffffff16815260200190815260200160002060000160009054906101000a900460ff166102ef576040517f08c379a00000000000000000000000000000000000000000000000000000000081526004016102e690611922565b60405180910390fd5b6003600581111561030357610302611642565b5b600260009054906101000a900460ff16600581111561032557610324611642565b5b14610365576040517f08c379a000000000000000000000000000000000000000000000000000000000815260040161035c906119b4565b60405180910390fd5b60011515600460003373ffffffffffffffffffffffffffffffffffffffff1673ffffffffffffffffffffffffffffffffffffffff16815260200190815260200160002060000160019054906101000a900460ff161515036103fb576040517f08c379a00000000000000000000000000000000000000000000000000000000081526004016103f290611a20565b60405180910390fd5b600380549050811115610443576040517f08c379a000000000000000000000000000000000000000000000000000000000815260040161043a90611a8c565b60405180910390fd5b80600460003373ffffffffffffffffffffffffffffffffffffffff1673ffffffffffffffffffffffffffffffffffffffff168152602001908152602001600020600101819055506001600460003373ffffffffffffffffffffffffffffffffffffffff1673ffffffffffffffffffffffffffffffffffffffff16815260200190815260200160002060000160016101000a81548160ff021916908315150217905550600381815481106104f9576104f8611aac565b5b9060005260206000209060020201600101600081548092919061051b90611b0a565b91905055507f4d99b957a2bc29a30ebd96a7be8e68fe50a3c701db28a91436490b7d53870ca43382604051610551929190611b52565b60405180910390a150565b600460003373ffffffffffffffffffffffffffffffffffffffff1673ffffffffffffffffffffffffffffffffffffffff16815260200190815260200160002060000160009054906101000a900460ff166105eb576040517f08c379a00000000000000000000000000000000000000000000000000000000081526004016105e290611922565b60405180910390fd5b600160058111156105ff576105fe611642565b5b600260009054906101000a900460ff16600581111561062157610620611642565b5b14610661576040517f08c379a000000000000000000000000000000000000000000000000000000000815260040161065890611bc7565b60405180910390fd5b60405160200161067090611c0d565b60405160208183030381529060405280519060200120816040516020016106979190611c66565b60405160208183030381529060405280519060200120036106ed576040517f08c379a00000000000000000000000000000000000000000000000000000000081526004016106e490611cfa565b60405180910390fd5b6106f56112fe565b81816000018190525060038190806001815401808255809150506001900390600052602060002090600202016000909190919091506000820151816000019080519060200190610746929190611318565b506020820151816001015550507f92e393e9b54e2f801d3ea4beb0c5e71a21cc34a5d34b77d0fb8a3aa1650dc18f60016003805490506107869190611d1a565b60405161079391906117d9565b60405180910390a15050565b6107a76111b4565b600460058111156107bb576107ba611642565b5b600260009054906101000a900460ff1660058111156107dd576107dc611642565b5b1461081d576040517f08c379a000000000000000000000000000000000000000000000000000000000815260040161081490611dc0565b60405180910390fd5b600080600090505b60038054905081101561089b576003828154811061084657610845611aac565b5b9060005260206000209060020201600101546003828154811061086c5761086b611aac565b5b9060005260206000209060020201600101541115610888578091505b808061089390611b0a565b915050610825565b50806001819055506005600260006101000a81548160ff021916908360058111156108c9576108c8611642565b5b02179055507f0a97a4ee45751e2abf3e4fc8946939630b11b371ea8ae39ccdc3056e98f5cc3f60046005604051610901929190611de0565b60405180910390a150565b6109146111b4565b61091e6000611232565b565b60008060009054906101000a900473ffffffffffffffffffffffffffffffffffffffff16905090565b600260009054906101000a900460ff1681565b6109646112fe565b600460003373ffffffffffffffffffffffffffffffffffffffff1673ffffffffffffffffffffffffffffffffffffffff16815260200190815260200160002060000160009054906101000a900460ff166109f3576040517f08c379a00000000000000000000000000000000000000000000000000000000081526004016109ea90611922565b60405180910390fd5b60038281548110610a0757610a06611aac565b5b9060005260206000209060020201604051806040016040529081600082018054610a3090611e38565b80601f0160208091040260200160405190810160405280929190818152602001828054610a5c90611e38565b8015610aa95780601f10610a7e57610100808354040283529160200191610aa9565b820191906000526020600020905b815481529060010190602001808311610a8c57829003601f168201915b505050505081526020016001820154815250509050919050565b610acb6111b4565b60036005811115610adf57610ade611642565b5b600260009054906101000a900460ff166005811115610b0157610b00611642565b5b14610b41576040517f08c379a0000000000000000000000000000000000000000000000000000000008152600401610b38906119b4565b60405180910390fd5b6004600260006101000a81548160ff02191690836005811115610b6757610b66611642565b5b02179055507f0a97a4ee45751e2abf3e4fc8946939630b11b371ea8ae39ccdc3056e98f5cc3f60036004604051610b9f929190611de0565b60405180910390a1565b60015481565b610bb76111b4565b60006005811115610bcb57610bca611642565b5b600260009054906101000a900460ff166005811115610bed57610bec611642565b5b14610c2d576040517f08c379a0000000000000000000000000000000000000000000000000000000008152600401610c2490611edb565b60405180910390fd5b6001600260006101000a81548160ff02191690836005811115610c5357610c52611642565b5b02179055507f0a97a4ee45751e2abf3e4fc8946939630b11b371ea8ae39ccdc3056e98f5cc3f60006001604051610c8b929190611de0565b60405180910390a1565b610c9d6111b4565b60016005811115610cb157610cb0611642565b5b600260009054906101000a900460ff166005811115610cd357610cd2611642565b5b14610d13576040517f08c379a0000000000000000000000000000000000000000000000000000000008152600401610d0a90611f6d565b60405180910390fd5b60028060006101000a81548160ff02191690836005811115610d3857610d37611642565b5b02179055507f0a97a4ee45751e2abf3e4fc8946939630b11b371ea8ae39ccdc3056e98f5cc3f60016002604051610d70929190611de0565b60405180910390a1565b610d8261139e565b600460003373ffffffffffffffffffffffffffffffffffffffff1673ffffffffffffffffffffffffffffffffffffffff16815260200190815260200160002060000160009054906101000a900460ff16610e11576040517f08c379a0000000000000000000000000000000000000000000000000000000008152600401610e0890611922565b60405180910390fd5b600460008373ffffffffffffffffffffffffffffffffffffffff1673ffffffffffffffffffffffffffffffffffffffff1681526020019081526020016000206040518060600160405290816000820160009054906101000a900460ff161515151581526020016000820160019054906101000a900460ff161515151581526020016001820154815250509050919050565b610eaa6111b4565b60026005811115610ebe57610ebd611642565b5b600260009054906101000a900460ff166005811115610ee057610edf611642565b5b14610f20576040517f08c379a0000000000000000000000000000000000000000000000000000000008152600401610f1790611fff565b60405180910390fd5b6003600260006101000a81548160ff02191690836005811115610f4657610f45611642565b5b02179055507f0a97a4ee45751e2abf3e4fc8946939630b11b371ea8ae39ccdc3056e98f5cc3f60026003604051610f7e929190611de0565b60405180910390a1565b610f906111b4565b600073ffffffffffffffffffffffffffffffffffffffff168173ffffffffffffffffffffffffffffffffffffffff1603610fff576040517f08c379a0000000000000000000000000000000000000000000000000000000008152600401610ff690612091565b60405180910390fd5b61100881611232565b50565b6110136111b4565b6000600581111561102757611026611642565b5b600260009054906101000a900460ff16600581111561104957611048611642565b5b14611089576040517f08c379a000000000000000000000000000000000000000000000000000000000815260040161108090612123565b60405180910390fd5b60011515600460008373ffffffffffffffffffffffffffffffffffffffff1673ffffffffffffffffffffffffffffffffffffffff16815260200190815260200160002060000160009054906101000a900460ff1615150361111f576040517f08c379a00000000000000000000000000000000000000000000000000000000081526004016111169061218f565b60405180910390fd5b6001600460008373ffffffffffffffffffffffffffffffffffffffff1673ffffffffffffffffffffffffffffffffffffffff16815260200190815260200160002060000160006101000a81548160ff0219169083151502179055507fb6be2187d059cc2a55fe29e0e503b566e1e0f8c8780096e185429350acffd3dd816040516111a99190611627565b60405180910390a150565b6111bc6112f6565b73ffffffffffffffffffffffffffffffffffffffff166111da610920565b73ffffffffffffffffffffffffffffffffffffffff1614611230576040517f08c379a0000000000000000000000000000000000000000000000000000000008152600401611227906121fb565b60405180910390fd5b565b60008060009054906101000a900473ffffffffffffffffffffffffffffffffffffffff169050816000806101000a81548173ffffffffffffffffffffffffffffffffffffffff021916908373ffffffffffffffffffffffffffffffffffffffff1602179055508173ffffffffffffffffffffffffffffffffffffffff168173ffffffffffffffffffffffffffffffffffffffff167f8be0079c531659141344cd1fd0a4f28419497f9722a3daafe3b4186f6b6457e060405160405180910390a35050565b600033905090565b604051806040016040528060608152602001600081525090565b82805461132490611e38565b90600052602060002090601f016020900481019282611346576000855561138d565b82601f1061135f57805160ff191683800117855561138d565b8280016001018555821561138d579182015b8281111561138c578251825591602001919060010190611371565b5b50905061139a91906113c3565b5090565b6040518060600160405280600015158152602001600015158152602001600081525090565b5b808211156113dc5760008160009055506001016113c4565b5090565b6000604051905090565b600080fd5b600080fd5b6000819050919050565b611407816113f4565b811461141257600080fd5b50565b600081359050611424816113fe565b92915050565b6000602082840312156114405761143f6113ea565b5b600061144e84828501611415565b91505092915050565b600080fd5b600080fd5b6000601f19601f8301169050919050565b7f4e487b7100000000000000000000000000000000000000000000000000000000600052604160045260246000fd5b6114aa82611461565b810181811067ffffffffffffffff821117156114c9576114c8611472565b5b80604052505050565b60006114dc6113e0565b90506114e882826114a1565b919050565b600067ffffffffffffffff82111561150857611507611472565b5b61151182611461565b9050602081019050919050565b82818337600083830152505050565b600061154061153b846114ed565b6114d2565b90508281526020810184848401111561155c5761155b61145c565b5b61156784828561151e565b509392505050565b600082601f83011261158457611583611457565b5b813561159484826020860161152d565b91505092915050565b6000602082840312156115b3576115b26113ea565b5b600082013567ffffffffffffffff8111156115d1576115d06113ef565b5b6115dd8482850161156f565b91505092915050565b600073ffffffffffffffffffffffffffffffffffffffff82169050919050565b6000611611826115e6565b9050919050565b61162181611606565b82525050565b600060208201905061163c6000830184611618565b92915050565b7f4e487b7100000000000000000000000000000000000000000000000000000000600052602160045260246000fd5b6006811061168257611681611642565b5b50565b600081905061169382611671565b919050565b60006116a382611685565b9050919050565b6116b381611698565b82525050565b60006020820190506116ce60008301846116aa565b92915050565b600081519050919050565b600082825260208201905092915050565b60005b8381101561170e5780820151818401526020810190506116f3565b8381111561171d576000848401525b50505050565b600061172e826116d4565b61173881856116df565b93506117488185602086016116f0565b61175181611461565b840191505092915050565b611765816113f4565b82525050565b600060408301600083015184820360008601526117888282611723565b915050602083015161179d602086018261175c565b508091505092915050565b600060208201905081810360008301526117c2818461176b565b905092915050565b6117d3816113f4565b82525050565b60006020820190506117ee60008301846117ca565b92915050565b6117fd81611606565b811461180857600080fd5b50565b60008135905061181a816117f4565b92915050565b600060208284031215611836576118356113ea565b5b60006118448482850161180b565b91505092915050565b60008115159050919050565b6118628161184d565b82525050565b60608201600082015161187e6000850182611859565b5060208201516118916020850182611859565b5060408201516118a4604085018261175c565b50505050565b60006060820190506118bf6000830184611868565b92915050565b600082825260208201905092915050565b7f596f75277265206e6f74206120766f7465720000000000000000000000000000600082015250565b600061190c6012836118c5565b9150611917826118d6565b602082019050919050565b6000602082019050818103600083015261193b816118ff565b9050919050565b7f566f74696e672073657373696f6e20686176656e74207374617274656420796560008201527f7400000000000000000000000000000000000000000000000000000000000000602082015250565b600061199e6021836118c5565b91506119a982611942565b604082019050919050565b600060208201905081810360008301526119cd81611991565b9050919050565b7f596f75206861766520616c726561647920766f74656400000000000000000000600082015250565b6000611a0a6016836118c5565b9150611a15826119d4565b602082019050919050565b60006020820190508181036000830152611a39816119fd565b9050919050565b7f50726f706f73616c206e6f7420666f756e640000000000000000000000000000600082015250565b6000611a766012836118c5565b9150611a8182611a40565b602082019050919050565b60006020820190508181036000830152611aa581611a69565b9050919050565b7f4e487b7100000000000000000000000000000000000000000000000000000000600052603260045260246000fd5b7f4e487b7100000000000000000000000000000000000000000000000000000000600052601160045260246000fd5b6000611b15826113f4565b91507fffffffffffffffffffffffffffffffffffffffffffffffffffffffffffffffff8203611b4757611b46611adb565b5b600182019050919050565b6000604082019050611b676000830185611618565b611b7460208301846117ca565b9392505050565b7f50726f706f73616c7320617265206e6f7420616c6c6f77656420796574000000600082015250565b6000611bb1601d836118c5565b9150611bbc82611b7b565b602082019050919050565b60006020820190508181036000830152611be081611ba4565b9050919050565b50565b6000611bf76000836118c5565b9150611c0282611be7565b600082019050919050565b60006020820190508181036000830152611c2681611bea565b9050919050565b6000611c38826116d4565b611c4281856118c5565b9350611c528185602086016116f0565b611c5b81611461565b840191505092915050565b60006020820190508181036000830152611c808184611c2d565b905092915050565b7f566f7573206e6520706f7576657a20706173206e65207269656e2070726f706f60008201527f7365720000000000000000000000000000000000000000000000000000000000602082015250565b6000611ce46023836118c5565b9150611cef82611c88565b604082019050919050565b60006020820190508181036000830152611d1381611cd7565b9050919050565b6000611d25826113f4565b9150611d30836113f4565b925082821015611d4357611d42611adb565b5b828203905092915050565b7f43757272656e7420737461747573206973206e6f7420766f74696e672073657360008201527f73696f6e20656e64656400000000000000000000000000000000000000000000602082015250565b6000611daa602a836118c5565b9150611db582611d4e565b604082019050919050565b60006020820190508181036000830152611dd981611d9d565b9050919050565b6000604082019050611df560008301856116aa565b611e0260208301846116aa565b9392505050565b7f4e487b7100000000000000000000000000000000000000000000000000000000600052602260045260246000fd5b60006002820490506001821680611e5057607f821691505b602082108103611e6357611e62611e09565b5b50919050565b7f5265676973746572696e672070726f706f73616c732063616e7420626520737460008201527f6172746564206e6f770000000000000000000000000000000000000000000000602082015250565b6000611ec56029836118c5565b9150611ed082611e69565b604082019050919050565b60006020820190508181036000830152611ef481611eb8565b9050919050565b7f5265676973746572696e672070726f706f73616c7320686176656e742073746160008201527f7274656420796574000000000000000000000000000000000000000000000000602082015250565b6000611f576028836118c5565b9150611f6282611efb565b604082019050919050565b60006020820190508181036000830152611f8681611f4a565b9050919050565b7f5265676973746572696e672070726f706f73616c73207068617365206973206e60008201527f6f742066696e6973686564000000000000000000000000000000000000000000602082015250565b6000611fe9602b836118c5565b9150611ff482611f8d565b604082019050919050565b6000602082019050818103600083015261201881611fdc565b9050919050565b7f4f776e61626c653a206e6577206f776e657220697320746865207a65726f206160008201527f6464726573730000000000000000000000000000000000000000000000000000602082015250565b600061207b6026836118c5565b91506120868261201f565b604082019050919050565b600060208201905081810360008301526120aa8161206e565b9050919050565b7f566f7465727320726567697374726174696f6e206973206e6f74206f70656e2060008201527f7965740000000000000000000000000000000000000000000000000000000000602082015250565b600061210d6023836118c5565b9150612118826120b1565b604082019050919050565b6000602082019050818103600083015261213c81612100565b9050919050565b7f416c726561647920726567697374657265640000000000000000000000000000600082015250565b60006121796012836118c5565b915061218482612143565b602082019050919050565b600060208201905081810360008301526121a88161216c565b9050919050565b7f4f776e61626c653a2063616c6c6572206973206e6f7420746865206f776e6572600082015250565b60006121e56020836118c5565b91506121f0826121af565b602082019050919050565b60006020820190508181036000830152612214816121d8565b905091905056fea2646970667358221220ff67077a67c2e2da001573dbba1bf5b4fed3ec77f4a52f63e85e415377e8177064736f6c634300080e0033",
  "immutableReferences": {},
  "source": "// SPDX-License-Identifier: MIT\n\npragma solidity 0.8.14;\nimport \"../node_modules/@openzeppelin/contracts/access/Ownable.sol\";\n\n/**\n * @title Voting system \n * @author Alyra\n * @dev Allows register voters, register proposal, tally votes, change status voting...\n */\ncontract Voting is Ownable {\n\n    uint public winningProposalID;\n    \n    struct Voter {\n        bool isRegistered;\n        bool hasVoted;\n        uint votedProposalId;\n    }\n\n    struct Proposal {\n        string description;\n        uint voteCount;\n    }\n\n    enum WorkflowStatus {\n        RegisteringVoters,\n        ProposalsRegistrationStarted,\n        ProposalsRegistrationEnded,\n        VotingSessionStarted,\n        VotingSessionEnded,\n        VotesTallied\n    }\n\n    WorkflowStatus public workflowStatus;\n    Proposal[] proposalsArray;\n    mapping (address => Voter) voters;\n\n\n    event VoterRegistered(address voterAddress); \n    event WorkflowStatusChange(WorkflowStatus previousStatus, WorkflowStatus newStatus);\n    event ProposalRegistered(uint proposalId);\n    event Voted (address voter, uint proposalId);\n\n    /**\n    * @dev Modifier check current call address is in Whitelist\n    */\n    modifier onlyVoters() {\n        require(voters[msg.sender].isRegistered, \"You're not a voter\");\n        _;\n    }\n\n    /**\n     * @dev Get one voter by address, it's only available for the voters\n     * @param _addr address\n     * @return voter address\n     */\n    function getVoter(address _addr) external onlyVoters view returns (Voter memory) {\n        return voters[_addr];\n    }\n    \n    /**\n     * @dev Get one proposal by id, it's only available for the voters\n     * @param _id uint proposal id\n     * @return proposal description\n     */\n    function getOneProposal(uint _id) external onlyVoters view returns (Proposal memory) {\n        return proposalsArray[_id];\n    }\n\n    /**\n     * @dev Add voter in whitlist only available for the owner\n     * Emits an event voter registered address\n     * @param _addr address of the new voter\n     */\n    function addVoter(address _addr) external onlyOwner {\n        require(workflowStatus == WorkflowStatus.RegisteringVoters, 'Voters registration is not open yet');\n        require(voters[_addr].isRegistered != true, 'Already registered');\n    \n        voters[_addr].isRegistered = true;\n        emit VoterRegistered(_addr);\n    }\n\n    /**\n     * @dev Allows an address present in the whitelist to add a voting proposal only available for the owner\n     * Emits an event proposal registered and this position\n     * @param _desc string description at the proposa\n     */\n    function addProposal(string memory _desc) external onlyVoters {\n        require(workflowStatus == WorkflowStatus.ProposalsRegistrationStarted, 'Proposals are not allowed yet');\n        require(keccak256(abi.encode(_desc)) != keccak256(abi.encode(\"\")), 'Vous ne pouvez pas ne rien proposer');\n\n        Proposal memory proposal;\n        proposal.description = _desc;\n        proposalsArray.push(proposal);\n        emit ProposalRegistered(proposalsArray.length-1);\n    }\n\n    /**\n     * @dev Save vote, it's available only for the voters\n     * Emits an event voted with address voter and proposal id\n     * @param _id uint proposal id\n     */\n    function setVote( uint _id) external onlyVoters {\n        require(workflowStatus == WorkflowStatus.VotingSessionStarted, 'Voting session havent started yet');\n        require(voters[msg.sender].hasVoted != true, 'You have already voted');\n        require(_id <= proposalsArray.length, 'Proposal not found'); // pas oblig, et pas besoin du >0 car uint\n\n        voters[msg.sender].votedProposalId = _id;\n        voters[msg.sender].hasVoted = true;\n        proposalsArray[_id].voteCount++;\n\n        emit Voted(msg.sender, _id);\n    }\n\n    /**\n     * @dev Change status voting to \"start proposals registering\", it's available only for the owner\n     * Emits an event workflow status change\n     */\n    function startProposalsRegistering() external onlyOwner {\n        require(workflowStatus == WorkflowStatus.RegisteringVoters, 'Registering proposals cant be started now');\n        workflowStatus = WorkflowStatus.ProposalsRegistrationStarted;\n        emit WorkflowStatusChange(WorkflowStatus.RegisteringVoters, WorkflowStatus.ProposalsRegistrationStarted);\n    }\n\n    /**\n     * @dev Change status voting to \"end proposals registering\", it's available only for the owner\n     * Emits an event workflow status change\n     */\n    function endProposalsRegistering() external onlyOwner {\n        require(workflowStatus == WorkflowStatus.ProposalsRegistrationStarted, 'Registering proposals havent started yet');\n        workflowStatus = WorkflowStatus.ProposalsRegistrationEnded;\n        emit WorkflowStatusChange(WorkflowStatus.ProposalsRegistrationStarted, WorkflowStatus.ProposalsRegistrationEnded);\n    }\n\n    /**\n     * @dev Change status voting to \"start voting session\", it's available only for the owner\n     * Emits an event workflow status change\n     */\n    function startVotingSession() external onlyOwner {\n        require(workflowStatus == WorkflowStatus.ProposalsRegistrationEnded, 'Registering proposals phase is not finished');\n        workflowStatus = WorkflowStatus.VotingSessionStarted;\n        emit WorkflowStatusChange(WorkflowStatus.ProposalsRegistrationEnded, WorkflowStatus.VotingSessionStarted);\n    }\n\n    /**\n     * @dev Change status voting to \"end voting session\", it's available only for the owner\n     * Emits an event workflow status change\n     */\n    function endVotingSession() external onlyOwner {\n        require(workflowStatus == WorkflowStatus.VotingSessionStarted, 'Voting session havent started yet');\n        workflowStatus = WorkflowStatus.VotingSessionEnded;\n        emit WorkflowStatusChange(WorkflowStatus.VotingSessionStarted, WorkflowStatus.VotingSessionEnded);\n    }\n\n    /**\n     * @dev tally votes available only for the owner\n     * Save the winner unit in winningProposalID\n     * Emits an event workflow status change\n     */\n    function tallyVotes() external onlyOwner {\n        require(workflowStatus == WorkflowStatus.VotingSessionEnded, \"Current status is not voting session ended\");\n        uint _winningProposalId;\n        for (uint256 p = 0; p < proposalsArray.length; p++) {\n            if (proposalsArray[p].voteCount > proposalsArray[_winningProposalId].voteCount) {\n                _winningProposalId = p;\n            }\n        }\n        winningProposalID = _winningProposalId;\n\n        workflowStatus = WorkflowStatus.VotesTallied;\n        emit WorkflowStatusChange(WorkflowStatus.VotingSessionEnded, WorkflowStatus.VotesTallied);\n    }\n}",
  "sourcePath": "/home/etienne/workspace/dapp-voting/truffle/contracts/Voting.sol",
  "compiler": {
    "name": "solc",
    "version": "0.8.14+commit.80d49f37.Emscripten.clang"
  },
  "schemaVersion": "3.4.7",
  "updatedAt": "2022-07-16T14:30:04.133Z",
  "networkType": "ethereum",
  "devdoc": {
    "author": "Alyra",
    "details": "Allows register voters, register proposal, tally votes, change status voting...",
    "kind": "dev",
    "methods": {
      "addProposal(string)": {
        "details": "Allows an address present in the whitelist to add a voting proposal only available for the owner Emits an event proposal registered and this position",
        "params": {
          "_desc": "string description at the proposa"
        }
      },
      "addVoter(address)": {
        "details": "Add voter in whitlist only available for the owner Emits an event voter registered address",
        "params": {
          "_addr": "address of the new voter"
        }
      },
      "endProposalsRegistering()": {
        "details": "Change status voting to \"end proposals registering\", it's available only for the owner Emits an event workflow status change"
      },
      "endVotingSession()": {
        "details": "Change status voting to \"end voting session\", it's available only for the owner Emits an event workflow status change"
      },
      "getOneProposal(uint256)": {
        "details": "Get one proposal by id, it's only available for the voters",
        "params": {
          "_id": "uint proposal id"
        },
        "returns": {
          "_0": "proposal description"
        }
      },
      "getVoter(address)": {
        "details": "Get one voter by address, it's only available for the voters",
        "params": {
          "_addr": "address"
        },
        "returns": {
          "_0": "voter address"
        }
      },
      "owner()": {
        "details": "Returns the address of the current owner."
      },
      "renounceOwnership()": {
        "details": "Leaves the contract without owner. It will not be possible to call `onlyOwner` functions anymore. Can only be called by the current owner. NOTE: Renouncing ownership will leave the contract without an owner, thereby removing any functionality that is only available to the owner."
      },
      "setVote(uint256)": {
        "details": "Save vote, it's available only for the voters Emits an event voted with address voter and proposal id",
        "params": {
          "_id": "uint proposal id"
        }
      },
      "startProposalsRegistering()": {
        "details": "Change status voting to \"start proposals registering\", it's available only for the owner Emits an event workflow status change"
      },
      "startVotingSession()": {
        "details": "Change status voting to \"start voting session\", it's available only for the owner Emits an event workflow status change"
      },
      "tallyVotes()": {
        "details": "tally votes available only for the owner Save the winner unit in winningProposalID Emits an event workflow status change"
      },
      "transferOwnership(address)": {
        "details": "Transfers ownership of the contract to a new account (`newOwner`). Can only be called by the current owner."
      }
    },
    "title": "Voting system ",
    "version": 1
  },
  "userdoc": {
    "kind": "user",
    "methods": {},
    "version": 1
  }
}